:100000000C94871C0C94B81C0C94B81C0C94B81C51
:100010000C94B81C0C94B81C0C94B81C0C94B81C10
:100020000C94B81C0C94B81C0C94B81C0C94B81C00
:100030000C94B81C0C94B81C0C94B81C0C94B81CF0
:100040000C94B81C0C9459EC0C94B81C0C94B81C6F
:100050000C94B81C0C94B81C0C94CF7F0C9427B053
:100060000C94B81C0C94024D0C94B81C0C94B81C45
:100070000C94B81C0C94B81C0C94B81C0C94B81CB0
:100080000C94B81C0C94B81C0C94B81C0C94B81CA0
:100090000C94B81C0C94B81C0C94B81C0C94B81C90
:1000A0000C94B81C0C94B81C0C94B81C0C94B81C80
:1000B0000C94B81C0C94B81C0C94B81C0C94B81C70
:1000C0000C94B81C0C94B81C0C94B81C0C94B81C60
:1000D0000C94B81C0C94B81C0C94B81C0C94B81C50
:1000E0000C94B81C80778B77927798779E77A4775B
:1000F000AA77B0772C78B6772C782C78C377897864
:100100009D78B878BC78D778E77805791C79537AE8
:100110003979537A4F79537A6E797479E079F6792F
:100120000B7A107A277A3F7A51AE54AE43AE47AE7F
:100130004DAE8BAE58AE5CAE62AE66AE6AAE70AE21
:1001400074AE78AE8BAE7EAE82AE86AE1EAF23AFFF
:1001500028AF32AF3CAFB5AF46AF4EAF56AF60AF92
:100160006AAF74AF83AF8DAFB5AF97AFA1AFABAF91
:100170001601EE00FE000C01F6000801FC00120161
:10018000EC000401084AD73B3BCE016E84BCBFFDA6
:10019000C12F3D6C74319ABD56833DDA3D00C77F57
:1001A00011BED9E4BB4C3E916BAAAABE00000080F0
:1001B0003F05A84CCDB2D44EB93836A9020C50B97F
:1001C000918688083CA6AAAA2ABE000000803F00AB
:1001D0000D943C010D940E010D94D9090D94CA099A
:1001E0000D9412010D9449260D9416260D94D309F1
:1001F0000D940A010D9439010D94D6090D94CD0981
:100200000D9416010D94D0190D94DC090D94510133
:100210000D94DF090D94A9030D94D0090D942D04BC
:100220000D943E010D94F0090D94CE1A0D94E4093D
:100230004E414E494E495459494E46CDCCCC3D0ACB
:10024000D7233C17B7D13877CC2B329595E6241FAE
:10025000B14F0A000020410000C84200401C462067
:10026000BCBE4CCA1B0E5AAEC59D7447322F4733D5
:100270002062616420706172616D65746572730AD9
:1002800000536C6565702E2E2E00486F6D652058EA
:10029000592066697273740A00486F6D6520585959
:1002A00020666972737400205A3A200020593A205F
:1002B0000042656420583A20004D65736820706FD5
:1002C000696E742063616E6E6F7420626520726562
:1002D000736F6C7665640A004E6F206D6F76652EC5
:1002E00000286E6F2066696C652900534420707287
:1002F000696E74696E67206279746520004E6F7450
:10030000205344207072696E74696E670A004375E9
:100310007272656E742066696C653A20004B494CB8
:100320004C45442E200020466C6F773A2000000197
:1003300036372603FFFFFF2C3C3D380EFFFFFF4002
:100340002E303E12FFFFFFFF28FF0C0809FFFFFFC2
:100350001A1C18FFFF2A08440AFF43496E76616C95
:1003600069642065787472756465720A0020643A65
:100370000020693A0020703A0020653A0043290ABB
:100380000061626C656420286D696E2074656D7013
:100390002000436F6C642065787472756465732007
:1003A00061726520004B64200023646566696E6598
:1003B0002044454641554C545F004B69200023645E
:1003C0006566696E652044454641554C545F004B57
:1003D00070200023646566696E652044454641557A
:1003E0004C545F00504944204175746F74756E65BC
:1003F0002066696E69736865642120507574207485
:100400006865206C617374204B702C204B692061EF
:100410006E64204B6420636F6E7374616E7473201E
:1004200066726F6D2062656C6F7720696E746F20E5
:10043000436F6E66696775726174696F6E2E680AC4
:1004400000504944204175746F74756E6520666173
:10045000696C6564212074696D656F75740A004567
:100460003120544845524D414C2052554E41574140
:10047000590042454420544845524D414C20525564
:100480004E4157415900546865726D616C20527538
:100490006E617761790045312048656174696E67E6
:1004A000206661696C6564004265642068656174FA
:1004B000696E67206661696C65640048656174698E
:1004C0006E67206661696C6564005049442041751F
:1004D000746F74756E65206661696C656421205463
:1004E000656D706572617475726520746F6F2068D8
:1004F0006967680A00204B643A2000204B693A2063
:1005000000204B703A20000A20436C6173736963CA
:1005100020504944200A002054753A2000204B7591
:100520003A2000206D61783A2000206D696E3A20F3
:100530000020643A200020626961733A200050492B
:1005400044204175746F74756E65206661696C65D1
:10055000642120426164206578747275646572203C
:100560006E756D6265720A00504944204175746F62
:1005700074756E652073746172740A0020643A00A9
:1005800020693A0020703A004E6F20636173652045
:100590006C696768740A004F66660A0046616465A4
:1005A000204865696768742000426564204C657660
:1005B000656C696E6720004661696C656420746FC4
:1005C00020656E61626C6520426564204C657665CD
:1005D0006C696E670A004D65736820706F696E7490
:1005E0002063616E6E6F74206265207265736F6C3C
:1005F0007665640A004D34323120696E636F727221
:1006000065637420706172616D65746572207573C5
:100610006167650A00454550524F4D204F4B0A0017
:10062000617869733A70776D5F7363616C65207C84
:100630007374617475735F726573706F6E73657CCC
:100640000A00447269766572207265676973746521
:1006500072733A006F7409006F7470770900733217
:10066000676109007332676209006F6C6109006F8E
:100670006C62090073747374090066736163746952
:100680007665090073675F726573756C7409007332
:1006900074616C6C677561726409004452565354FE
:1006A00041545553005374616C6C677561726420DA
:1006B00074687273002D73746172740900687973C1
:1006C000746572657369730A2D656E640900626CE6
:1006D000616E6B2074696D65006F66662074696D6C
:1006E0006509004F54207072657761726E206861F1
:1006F000730A6265656E2074726967676572656406
:10070000004F54207072657761726E005B6D6D2FC3
:10071000735D090070776D0A7468726573686F6C39
:10072000640900747374657009006D737465707387
:100730000900737465616C746843686F7000767348
:10074000656E7365090050574D207363616C6509D0
:100750000043532061637475616C0900486F6C64D9
:100760002063757272656E740052756E20637572C7
:1007700072656E74004D41582063757272656E74B7
:1007800000524D532063757272656E740053657428
:100790002063757272656E7400456E61626C65648B
:1007A00009000900416374697665204578747275A3
:1007B0006465723A2000496E76616C6964206578E0
:1007C0007472756465720A004E6F20436865636BCE
:1007D00073756D2077697468206C696E65206E751D
:1007E0006D6265722C204C617374204C696E653AA1
:1007F00020004B494C4C45442E200053544F505040
:1008000045442E20005072696E7465722073746FB7
:10081000707065642064756520746F206572726FF6
:1008200072732E2046697820746865206572726F35
:100830007220616E6420757365204D3939392074DA
:100840006F20726573746172742E202854656D7008
:100850006572617475726520697320726573657461
:100860002E2053657420697420616674657220724D
:10087000657374617274696E67290A004E6F204354
:100880006865636B73756D2077697468206C696E39
:1008900065206E756D6265722C204C617374204CFE
:1008A000696E653A2000636865636B73756D206DD2
:1008B00069736D617463682C204C617374204C699A
:1008C0006E653A20004C696E65204E756D626572EA
:1008D000206973206E6F74204C617374204C696EB4
:1008E00065204E756D6265722B312C204C617374DE
:1008F000204C696E653A20004D313130004D333166
:100900000053442072656164206572726F720A0040
:100910004D3020533138303000436F6D706C65744A
:10092000656400446F6E65207072696E74696E67ED
:100930002066696C650A0020496E76616C696420E6
:10094000657874727564657220000000A0C10000B3
:10095000C8C1000000000000664300808E43000014
:10096000614342696C696E656172204C6576656CA5
:10097000696E6720477269643A0A00486F6D696E54
:1009800067206661696C656400202844525952559D
:100990004E2900473239204175746F20426564202A
:1009A0004C6576656C696E67003F20284C2C522C94
:1009B000462C4229206F7574206F6620626F756E19
:1009C00064732E0A003F2856296572626F73652092
:1009D0006C6576656C20697320696D706C617573E8
:1009E00069626C652028302D34292E0A004261642A
:1009F000205A2076616C75650A004E6F2062696C22
:100A0000696E65617220677269640A00436C69638C
:100A10006B20746F20726573756D652E2E2E0045E8
:100A20006E642066696C65206C6973740A004265A7
:100A300067696E2066696C65206C6973740A0020B2
:100A4000204D393036003A0A0020286D6D290020EB
:100A5000204D3931340020204D36303320002055D0
:100A6000004C0046696C616D656E74206C6F61644A
:100A70002F756E6C6F6164206C656E677468733A75
:100A80000A0020590020580053656E736F726C6520
:100A9000737320686F6D696E672074687265736820
:100AA0006F6C643A0A00205430204500205A002020
:100AB0005900205800537465707065722064726923
:100AC0007665722063757272656E743A0A00202032
:100AD0004D383531205A005A2D50726F6265204FC3
:100AE00066667365740020440020490020204D3361
:100AF000303420500020440020490020204D333065
:100B0000312050005049442073657474696E6773D6
:100B10003A0A0020460020420020480020204D31A3
:100B200034352053004D6174657269616C206865CD
:100B30006174757020706172616D65746572733A6D
:100B40000A00205A00204A0020204732392057202E
:100B50004900205A0020204D343230205300417586
:100B6000746F20426564204C6576656C696E673AE7
:100B70000A00205A0020590020204D3230362058DB
:100B800000486F6D65206F66667365743A0A0020D1
:100B90004500205A002059002058002054002053BE
:100BA0000020204D32303520510020453C6D6178C9
:100BB0005F655F6A65726B3E0020583C6D61785FCF
:100BC000785F6A65726B3E20593C6D61785F795F32
:100BD0006A65726B3E205A3C6D61785F7A5F6A6528
:100BE000726B3E00416476616E6365643A20513CED
:100BF0006D696E5F7365676D656E745F74696D6551
:100C00005F75733E20533C6D696E5F666565647207
:100C10006174653E20543C6D696E5F7472617665E7
:100C20006C5F66656564726174653E0020540020E7
:100C3000520020204D323034205000416363656CF7
:100C400065726174696F6E2028756E6974732F7395
:100C500032293A20503C7072696E745F616363653B
:100C60006C3E20523C726574726163745F616363B1
:100C7000656C3E20543C74726176656C5F616363A1
:100C8000656C3E0A00204500205A002059002020B3
:100C90004D3230312058004D6178696D756D2041BD
:100CA0006363656C65726174696F6E2028756E6927
:100CB00074732F7332293A0A00204500205A00200D
:100CC000590020204D3230332058004D6178696D35
:100CD000756D206665656472617465732028756E34
:100CE0006974732F73293A0A00204500205A0020A6
:100CF000590020204D3932205800537465707320FC
:100D000070657220756E69743A0A0020204D323089
:100D1000302044300A0020204D3230302044002062
:100D200044697361626C65640A0046696C616D6553
:100D30006E742073657474696E67733A0020204D79
:100D40003134392043203B20556E69747320696E1D
:100D50002043656C736975730A0020204732312087
:100D60002020203B00545249474745524544006FDC
:100D700070656E003A200066696C616D656E740086
:100D80007A5F6D696E00795F6D696E00785F6D697D
:100D90006E005265706F7274696E6720656E647361
:100DA000746F70207374617475730A0045455052F6
:100DB0004F4D206461746173697A65206572726F4A
:100DC000722E0A00290A002062797465733B206341
:100DD0007263200053657474696E67732053746F77
:100DE000726564202800290A002062797465733BCB
:100DF0002063726320002073746F726564207365D2
:100E00007474696E6773207265747269657665645F
:100E1000202800202863616C63756C617465642907
:100E2000210A0020213D2000454550524F4D2043CE
:100E30005243206D69736D61746368202D2028739F
:100E4000746F7265642920002053697A653A200026
:100E5000496E6465783A2000204D61726C696E3D80
:100E6000563535290A0028454550524F4D3D00451D
:100E70004550524F4D2076657273696F6E206D69D3
:100E8000736D61746368200048617264636F6465A8
:100E9000642044656661756C742053657474696E72
:100EA0006773204C6F616465640A004C0400004C59
:100EB00004000019000000D0070000000096430065
:100EC0000096430000A0400000C8410000A042007E
:100ED00000A0420000C84400001B437C3C3E5E2B47
:100EE0003D3F2F5B5D3B2C2A225C004572726F7286
:100EF0002077726974696E6720746F20454550527F
:100F00004F4D210A0025753A2530327500253032C3
:100F1000753A253032750025756420253032753AD2
:100F20002530327500202020202020005A00590052
:100F300020202020005800092000000000000000B0
:100F40000000000000003FFFF00000000000000073
:100F500000000000003800700000000000000000E9
:100F60000000000030FC3000000000000000000025
:100F700000000020FC100000000000000000000045
:100F800000002078100000000000000000000000B9
:100F900000203010000000000000000000000000F1
:100FA0002C00D03FC0000000000000002082002E76
:100FB00031D07FE0000000000000001041002F7BD6
:100FC000D07FE0000000000000001041002F7BD027
:100FD0007FE0000000000000002082002E31D03FA2
:100FE000C0000000000000004104002C00D03FC001
:100FF000000000000000008208002030107FE000A8
:101000000000000000008208002078107FE000004F
:10101000000000000041040020FC107FE000000000
:101020000000000020820030FC301F800000000023
:101030000000000000003800700F000000000000F9
:101040000000FFFFC03FFFF00600000000000000AE
:1010500000FFFFC0000000000000000000000000D2
:101060000000003FFFF00000000000000000000052
:1010700000003800700000000000000000000000C8
:101080000031863000000000000000000000000079
:10109000238710000000000000000000000000276F
:1010A00087900000000000000000000000002F8773
:1010B000D00000000000000000000000002F03D05E
:1010C0003FC0000000000000002082002030107FA0
:1010D000E0000000000000001041002078107FE0D8
:1010E000000000000000001041002078107FE000A8
:1010F0000000000000002082002030103FC00000EF
:1011000000000000004104002F03D03FC000000099
:10111000000000008208002F87D07FE00000000060
:101120000000008208002787907FE0000000000098
:1011300000004104002387107FE000000000000051
:10114000002082003186301F800000000000000077
:101150000000003800700F0000000000000000FFD9
:10116000FFC03FFFF0060000000000000000FFFF8E
:10117000C00000004D656E64656C4D617820322EB4
:10118000302B2052656164792E005072696E74694B
:101190006E672E2E2E005072696E7420706175730A
:1011A00065640000060900FE00000000000109005F
:1011B00008FE000005080806000040F0C88888986E
:1011C0007810050808060000C0F88888888888F824
:1011D0000505050600012030F83020050808060046
:1011E000002070F820202020E00509090600FF20DB
:1011F00070A8A8B8888870200509090600FFE0805B
:10120000C0B0A8283028280509090600FFF8A888DA
:1012100088888888A8F8050A0A0600FE20505050E1
:101220005088A8A8887003030306000340A040204C
:101230007072657761726E20666C616720636C65A1
:10124000617265640A0020686F6D696E672073655E
:101250006E73697469766974793A20007472756581
:101260000066616C736500747275650066616C730D
:101270006500747275650066616C736500313D2EA2
:10128000313800303D2E333235002F3331002F33CB
:1012900031002F333100747275650066616C7365BF
:1012A00000203D203078001000C90210012C0140C0
:1012B00001220170011801B0010E01F0010401507A
:1012C00002FA00B002F0003003E600D003DC009028
:1012D00004D2007005C800A006BE000008B400B02B
:1012E00009AA00D00BA000600E960060118C0000CF
:1012F00015820020197800C01D6E00A0226400B085
:10130000275A00902C500000314600E0343C001079
:10131000383200903A2800603C1E00A03D14008046
:101320003E0A00203F0000453400453300453200AE
:101330004531004530005A32005932005832005AC7
:1013400000590058006265640A002C207379737498
:10135000656D2073746F70706564212048656174D9
:1013600065725F49443A2000426564206865617493
:10137000696E67206661696C6564004865617469BF
:101380006E67206661696C6564004531204865615F
:1013900074696E67206661696C6564004865617494
:1013A000696E67206661696C65640030031001D066
:1013B0000302017004F7001005ED00B005E50050D0
:1013C00006DD003008CC00100ABE00F00BB3007040
:1013D0000EA700F0109D0070139400F0158C00D043
:1013E000178700B0198200901B7D00301C7B00D055
:1013F0001C7A00701D7800101E7700B01E7500501A
:101400001F7400F01F72009020710030216F00D017
:10141000216E0070226C0010236B00B02369005015
:10142000246800F02466009025650030266400D012
:101430002662007027610010285F00B0285E00500F
:10144000295C00F0295B00902A5A00302B5800D00C
:101450002B5700702C5500102D5400B02D52005009
:101460002E5100F02E4F00902F4D0030304C00D008
:10147000304A007031480010324700B03245005009
:10148000334300F033410090343F0030353E00D00C
:10149000353C007036390010373700B03735005012
:1014A000383300F038300090392D00303A2A00D01F
:1014B0003A2700703B2400103C2000503D1700F0FC
:1014C0003D1100903E0900003F0000453120544886
:1014D00045524D414C2052554E41574159004245CD
:1014E0004420544845524D414C2052554E4157419D
:1014F0005900546865726D616C2052756E61776138
:1015000079004531204572723A204D415854454D7D
:1015100050004572723A204D415854454D5020427A
:101520004544004D415854454D50207472696767D9
:1015300065726564004531204572723A204D494E0E
:1015400054454D50004572723A204D494E54454D18
:101550005020424544004D494E54454D5020747230
:1015600069676765726564004D38342058205920DA
:101570005A204500202F002042403A0020403A00E7
:10158000431341133F133C133913361333133013F2
:101590002D132A132713747275650066616C7365C9
:1015A000002074656D70657261747572652070726B
:1015B000657761726E207472696767657265643AF7
:1015C000200000000A0B02090C0D0E08070304019D
:1015D000000000000000000000000000000000000B
:1015E00000000000000000000000000000001211D8
:1015F00010000000000000000000000000000000DB
:1016000000000000000000004B494C4C45442E20D7
:1016100000202D20496E76616C69642065787472B3
:1016200075646572206E756D62657220210A001FF7
:10163000FFFFFFFFFFFF600000000001FF40000010
:10164000000000FF8000000000007F83CF00000C3E
:10165000303F87FF80000C301F867980000C000F20
:101660008C30C7838C30E78C30CFC7CC31F38C30D3
:10167000DCECEC33B98C30D86C6C33198C30D06C1A
:101680000C33198C30D86C0C33198C30DC6C0E3B5D
:10169000198C30CF7C079F198C30C77C038F194081
:1016A000000000000002600000000000061FFFFFB5
:1016B000FFFFFFF82020506C616E6E657242756608
:1016C00066657242797465733A20002046726565DA
:1016D000204D656D6F72793A2000436F6D70696CB3
:1016E00065643A2044656320313320323031380A52
:1016F00000207C20417574686F723A2028544D4553
:101700002C204D656E64656C4D61782032290A008D
:10171000323031382D30382D303100204C61737427
:1017200020557064617465643A2000312E312E3981
:101730000A004D61726C696E0020536F66747761A8
:1017400072652052657365740A002057617463687E
:10175000646F672052657365740A002042726F7768
:101760006E206F75742052657365740A0020457889
:101770007465726E616C2052657365740A00506FF7
:1017800077657255700A0073746172740A0061752E
:10179000746F25692E67006572726F7220777269A7
:1017A00074696E6720746F2066696C650A00456E07
:1017B0006473746F70732025632025632025632074
:1017C000256300205A3A0020593A0020583A006513
:1017D0006E6473746F7073206869743A2000446F8C
:1017E0006E6520736176696E672066696C652E0A86
:1017F000004D3239004C6F6164206D6D004C6F619B
:1018000064206D6D004C6F6164206D6D00556E6CD1
:101810006F6164206D6D00556E6C6F6164206D6D3D
:1018200000556E6C6F6164206D6D0046696C2E20F2
:101830004469612E0046696C2E204469612E004F78
:101840006666004F6E20004520696E206D6D330086
:10185000436F6E74726F6C0043616E6E6F742065BF
:101860006E746572207375626469723A2000022E8C
:101870002E004D61696E004D3630302042302054CC
:101880002564004D37303120542564004D37303207
:10189000203B2564004D37303220542564004368D6
:1018A000616E67652066696C616D656E740050726B
:1018B00065686561742041425300507265686561D6
:1018C0007420504C41004368616E67652066696C06
:1018D000616D656E74005052494E5420504155530D
:1018E000454400554E4C4F41442046494C414D45DE
:1018F0004E54004C4F41442046494C414D454E54B6
:10190000005075726765206D6F726500436F6E746D
:10191000696E756500524553554D45204F505449E9
:101920004F4E533A0020204E6F7A7A6C653A200071
:101930006368616E6765006F66207468652066691C
:101940006C616D656E74005761697420666F7220FA
:1019500073746172740020204E6F7A7A6C653A203D
:1019600000200066696C616D656E7420756E6C6F29
:101970006164005761697420666F720020204E6FA9
:101980007A7A6C653A20002000506C65617365209E
:10199000776169742E2E2E0048656174696E672028
:1019A0006E6F7A7A6C650020204E6F7A7A6C653A99
:1019B0002000200068656174206E6F7A7A6C652E55
:1019C00000507265737320627574746F6E20746F4B
:1019D0000020204E6F7A7A6C653A2000746F206385
:1019E0006F6E74696E75652E2E2E00616E642070A8
:1019F0007265737320627574746F6E00496E7365DF
:101A000072742066696C616D656E740020204E6F83
:101A10007A7A6C653A2000200066696C616D656EAB
:101A200074206C6F6164005761697420666F720086
:101A300020204E6F7A7A6C653A2000200066696C2F
:101A4000616D656E742070757267650057616974A9
:101A500020666F7200746F20726573756D65005734
:101A600061697420666F72207072696E74004361E0
:101A700072642072656D6F766564004361726420E4
:101A8000696E7365727465640020746F6F206C6F8B
:101A90006E6720657874727573696F6E20707265F9
:101AA00076656E7465640A0020636F6C64206578E7
:101AB00074727573696F6E2070726576656E746589
:101AC000640A00000020002300260029002C002FBB
:101AD0000032000001000003010601090153442007
:101AE00063617264206F6B0A006F70656E526F6F76
:101AF00074206661696C65640A00766F6C756D654B
:101B00002E696E6974206661696C65640A005344CD
:101B100020696E6974206661696C0A00000021000A
:101B2000240027002A002D003000330001010000AE
:101B3000040107010A0143616E6E6F74206F7065C6
:101B40006E2073756264697220006563686F3A0085
:101B50006F70656E206661696C65642C2046696CE7
:101B6000653A2000010210202008081020401020B3
:101B70004080020102010804020101020408102051
:101B8000408080402010080402018004020180404F
:101B900020100804020108040201010204081020B8
:101BA000408001020408102040800000220025002F
:101BB00028002B002E003100340002010000050136
:101BC00008010B01050505050705080808080202BC
:101BD00002020A0A080804040404010101010101C7
:101BE00001010303030303030303040707070C0CAA
:101BF0000C0C0C0C0C0C0202020206060606060671
:101C000006060B0B0B0B0B0B0B0B46696C6520646C
:101C1000656C657465643A0044656C6574696F6EE3
:101C2000206661696C65642C2046696C653A200009
:101C30002569730025696D20256973002569682071
:101C400025696D2025697300256964202569682050
:101C500025696D202569730025697920256964202F
:101C60002569682025696D20256973005072696EA9
:101C7000742074696D653A200050726F74656374E6
:101C800065642050696E0A005374616E6461726409
:101C900020446576696174696F6E3A200020526154
:101CA0006E67653A2000204D61783A2000204D692A
:101CB0006E3A20004D65616E3A200046696E697388
:101CC000686564210A002072616E67653A20002011
:101CD0006D61783A2000206D696E3A2000207369AA
:101CE000676D613A2000206D65616E3A20003A20F0
:101CF0007A3A2000206F662000205A0020590020E8
:101D00005800476F696E6720746F3A00436C6F63C9
:101D10006B776973650A00436F756E7465722D0089
:101D200020446972656374696F6E3A200020202038
:101D3000616E676C653A20005374617274696E67F6
:101D4000207261646975733A2000506F7369746919
:101D50006F6E696E67207468652070726F62652EA1
:101D60002E2E0A003F4E756D626572206F66206CE4
:101D700065677320696E206D6F76656D656E742082
:101D80006E6F7420706C61757369626C65202830A9
:101D90002D3135292E0A003F2028582C5929206F33
:101DA0007574206F6620626F756E64732E0A003F33
:101DB00053616D706C652073697A65206E6F742055
:101DC000706C61757369626C652028342D3530291B
:101DD0002E0A004D3438205A2D50726F6265205201
:101DE00065706561746162696C69747920546573AA
:101DF000740A003F2856296572626F7365206C650E
:101E000076656C20697320696D706C6175736962A9
:101E10006C652028302D34292E0A00627573793ABA
:101E20002070617573656420666F7220696E7075CD
:101E3000740A00627573793A207061757365642065
:101E4000666F7220757365720A00627573793A2045
:101E500070726F63657373696E670A004B494C4C0F
:101E600045442E20004B494C4C20636175736564DA
:101E7000206279204B494C4C20627574746F6E2F30
:101E800070696E0A004B494C4C45442E20004B496A
:101E90004C4C2063617573656420627920746F6FA8
:101EA000206D75636820696E61637469766520745E
:101EB000696D65202D2063757272656E7420636F85
:101EC0006D6D616E643A20004D36303000506C65A7
:101ED000617365207265736574005052494E5445B4
:101EE000522048414C544544005072696E746572EA
:101EF0002068616C7465642E206B696C6C282920E5
:101F000063616C6C6564210A002064726976657295
:101F10002063757272656E743A2000656E71756526
:101F20007565696E672022000000A0C10000C8C16D
:101F300000000000000048420000484200008040CD
:101F4000000000005761726E696E673A20486F6D3D
:101F5000696E672042756D702044697669736F728F
:101F6000203C20310A0002020400000000000000B2
:101F7000000000004000007A4300009B4300006125
:101F800043FFFFFF4D333033205531204525692075
:101F90005325690050726568656174204142532081
:101FA000636F6E66005072656865617420504C41C5
:101FB00020636F6E6600504944204175746F7475DC
:101FC0006E6500504944204175746F74756E6500EC
:101FD0005049442D44005049442D44005049442D5B
:101FE00049005049442D49005049442D5000504962
:101FF000442D5000200820466163740020082046CC
:10200000616374002008204D6178002008204D6134
:1020100078002008204D6178002008204D696E006E
:102020002008204D696E002008204D696E004F6623
:1020300066004F6E20004175746F74656D700046C8
:10204000616E2073706565640046616E2073706513
:1020500065640042656400426564004E6F7A7A6C84
:1020600065004E6F7A7A6C6500436F6E74726F6CA8
:102070000053746F72652073657474696E677300C2
:1020800042656400426564004E6F7A7A6C65004E6A
:102090006F7A7A6C650046616E20737065656400C6
:1020A00046616E2073706565640054656D7065727D
:1020B0006174757265005654726176206D696E00A8
:1020C0005654726176206D696E00565472617620A6
:1020D0006D696E00566D696E00566D696E00566DC5
:1020E000696E00566D6178204500566D6178204517
:1020F00000566D6178204500566D6178205A005673
:102100006D6178205A00566D6178205A00566D61D5
:1021100078205900566D6178205900566D617820FD
:102120005900566D6178205800566D61782058002E
:10213000566D61782058004D6F74696F6E00507253
:10214000656865617420504C4120456E6400507292
:10215000656865617420504C41204265640050728E
:10216000656865617420504C410050726570617201
:102170006500507265686561742041425320456E68
:102180006400507265686561742041425320426565
:10219000640050726568656174204142530050725A
:1021A0006570617265004C6F616420736574746959
:1021B0006E67730053746F72652073657474696E13
:1021C00067730050726F6265205A204F66667365B0
:1021D000740050726F6265205A204F666673657492
:1021E00000466164652048656967687400466164FB
:1021F0006520486569676874004F6666004F6E2009
:1022000000426564204C6576656C696E67004C65BC
:1022100076656C20626564004732380A47323900BF
:10222000473239004175746F20686F6D6500473221
:10223000380050726570617265004D34323800505C
:1022400072656865617420504C4100436F6F6C6427
:102250006F776E004368616E67652066696C616DBB
:10226000656E74004368616E67652066696C616DB8
:10227000656E74004D363030204230004469736121
:10228000626C65207374657070657273004D3834CC
:102290000053657420686F6D65206F6666736574A2
:1022A0007300507265686561742041425300426555
:1022B00064204C6576656C696E67004175746F20AB
:1022C000686F6D6500473238004D6F766520617824
:1022D0006973004D61696E00434F4D4D554E494342
:1022E0004154494F4E0044525952554E00455252A6
:1022F0004F525300494E464F004543484F00205728
:102300003A0042656420636F6F6C696E672E2E2EF3
:10231000004265642068656174696E672E2E2E0028
:10232000F922F422ED22E622D8226F6666004445A7
:102330004255473A004D3131332053004D31343549
:1023400020533C696E6465783E206F7574206F661B
:102350002072616E67652028302D31290A004D6595
:102360006E64656C4D617820322E302B204F66668E
:102370002E00205A3A0020593A0020436F756E749F
:1023800020583A0020453A00205A3A0020593A0095
:10239000583A002C20002C20003A004361703A008B
:1023A000544845524D414C5F50524F544543544957
:1023B0004F4E004155544F5245504F52545F534475
:1023C0005F53544154555300454D455247454E4384
:1023D000595F50415253455200434153455F4C4968
:1023E0004748545F4252494748544E45535300545E
:1023F0004F47474C455F4C494748545300534F465D
:1024000054574152455F504F574552004255494C31
:10241000445F50455243454E54004C4556454C4947
:102420004E475F44415441005A5F50524F4245006D
:102430004155544F4C4556454C005052494E545FFF
:102440004A4F420050524F47524553530041555452
:102450004F5245504F52545F54454D5000564F4CCB
:10246000554D455452494300454550524F4D005338
:10247000455249414C5F584F4E5F584F46460046C3
:1024800049524D574152455F4E414D453A4D61725B
:102490006C696E20312E312E392028476974687599
:1024A000622920534F555243455F434F44455F5582
:1024B000524C3A68747470733A2F2F676974687558
:1024C000622E636F6D2F4D61726C696E4669726D1D
:1024D000776172652F4D61726C696E2050524F5456
:1024E0004F434F4C5F56455253494F4E3A312E3071
:1024F000204D414348494E455F545950453A4D653A
:102500006E64656C4D617820322E302B2045585416
:1025100052554445525F434F554E543A312055551C
:1025200049443A63656465326132662D3431613203
:102530002D343734382D396231322D6335356336D9
:10254000326633363766660A002F2F20002054008B
:10255000205200416363656C65726174696F6E3A05
:10256000205000416D6178204500416D6178204523
:1025700000416D6178205A00416D6178205A004118
:102580006D6178205900416D6178205900416D617D
:1025900078205800416D6178205800412D74726197
:1025A00076656C00412D74726176656C00412D7208
:1025B00065747261637400412D7265747261637435
:1025C00000416363656C00416363656C004D6F742B
:1025D000696F6E0056652D6A65726B0056652D6ACF
:1025E00065726B0056652D6A65726B00567A2D6AAE
:1025F00065726B00567A2D6A65726B0056792D6A8A
:1026000065726B0056792D6A65726B0056792D6A7A
:1026100065726B0056782D6A65726B0056782D6A6C
:1026200065726B0056782D6A65726B004D6F746928
:102630006F6E004573746570732F6D6D0045737414
:102640006570732F6D6D005A73746570732F6D6DA7
:10265000005A73746570732F6D6D005973746570D3
:10266000732F6D6D005973746570732F6D6D005805
:1026700073746570732F6D6D005873746570732F6C
:102680006D6D004D6F74696F6E0053746570732FBC
:102690006D6D004A65726B00416363656C657261C4
:1026A00074696F6E0056656C6F636974790050725F
:1026B0006F6265205A204F66667365740050726FB2
:1026C0006265205A204F666673657400436F6E74AE
:1026D000726F6C005741524E494E4721204C6F7724
:1026E000205A204A65726B206D6179206C656164A7
:1026F00020746F20756E77616E74656420706175EB
:102700007365732E0A00205A0020590058002020BB
:102710004D61783A2000205A0020590058002020AE
:102720004D696E3A20004F6E20004F666600536F71
:10273000667420656E6473746F70733A20004F6620
:102740006673657473206170706C696564004572AE
:10275000723A20546F6F206661722100546F6F20AF
:102760006661722066726F6D207265666572656E55
:10277000636520706F696E740A003A200050726FB2
:102780006265205A204F6666736574003F5A206F59
:102790007574206F662072616E676520282D323057
:1027A00020746F203230290A004D3630303A2054E0
:1027B0006F6F20636F6C6400486F74656E64207483
:1027C0006F6F20636F6C640A00496E7365727420CA
:1027D00066696C616D656E7420616E6420707265EF
:1027E000737320627574746F6E0A00507265737330
:1027F00020627574746F6E20746F20686561742038
:102800006E6F7A7A6C650A00496E73657274206621
:10281000696C616D656E7420616E642070726573A1
:102820007320627574746F6E20286F72204D313082
:1028300038290A00496E736572742066696C616D8F
:10284000656E7420616E64207072657373206275AA
:1028500074746F6E20286F72204D313038290A0051
:1028600024F4D43050C38E20C2A24017828B701142
:10287000127A910D816CD90AA861E108C7586607E0
:10288000615143061E4B5D05C145A7041A41110461
:10289000093D9803713931034036DB0265339102FB
:1028A000D4305402802E1D02632CEE01752AC5011E
:1028B000B028A001102781018F2564012B244B0132
:1028C000E0223401AC211F018D200D01801FFC008E
:1028D000841EED00971DDF00B81CD200E61BC60069
:1028E000201BBC00641AB200B219A8000A19A0008B
:1028F0006A189900D117910040178B00B516840013
:1029000031167E00B31579003A157300C7146F00B5
:1029100058146A00EE1366008813630025135E00E6
:10292000C7125B006C12570015125400C111510000
:1029300070114F0021114B00D61049008D10470037
:102940004610440002104200C00F4000800F3E00BD
:10295000420F3C00060F3B00CB0E3800930E3700B1
:102960005C0E3500270E3400F30D3200C10D31002E
:10297000900D3000600D2E00320D2D00050D2C0045
:10298000D90C2B00AE0C2900850C29005C0C27000B
:10299000350C27000E0C2600E80B2400C40B240085
:1029A000A00B23007D0B23005A0B2100390B2100C3
:1029B000180B2000F80A1F00D90A1E00BB0A1E00CF
:1029C0009D0A1D00800A1D00630A1C00470A1B00A7
:1029D0002C0A1B00110A1A00F7091A00DD09190058
:1029E000C4091900AB091900920917007B091800E6
:1029F000630917004C091600360916002009160055
:102A00000A091500F5081500E0081400CC081400A8
:102A1000B8081400A4081400900813007D081200E0
:102A20006B08130058081200460812003408110001
:102A3000230811001208110001081100F00710000E
:102A4000E0071000D0071000C0071000B0070F000B
:102A5000A107100091070E0083070F0074070F00F5
:102A600065070E0057070E0049070E003B070D00D3
:102A70002E070E0020070D0013070D0006070D009E
:102A8000F9060C00ED060D00E0060C00D4060C0063
:102A9000C8060C00BC060C00B0060C00A4060B0017
:102AA00099060C008D060B0082060B0077060B00C2
:102AB0006C060B0061060A0057060B004C060A0064
:102AC00042060A0038060A002E060A0024060A00FA
:102AD0001A060A001006090007060A00FD0509008B
:102AE000F4050900EB050900E2050900D905090014
:102AF000D0050900C7050900BE050900B505080095
:102B0000AD050800A50509009C050800940508000E
:102B10008C050800840508007C0508007405080081
:102B20006C050700650508005D05070056050800EF
:102B30004E05070047050700400508003805070057
:102B4000310507002A050700230507001C050600BC
:102B5000160507000F050700080506000205070017
:102B6000FB040600F5040700EE040600E804060076
:102B7000E2040700DB040600D5040600CF040600CB
:102B8000C9040600C3040600BD040600B70406001D
:102B9000B1040500AC040600A6040600A00405006C
:102BA0009B04060095040500900406008A040500B5
:102BB00085040500800406007A04050075040500FC
:102BC000700405006B04050066040500610405003F
:102BD0005C04050057040500520405004D0405007F
:102BE00048040500430405003E0404003A040500BF
:102BF00035040500300404002C04050027040400FB
:102C0000230405001E0404001A0404001604050031
:102C1000110404000D040400090405000404040068
:102C200000040400FC030400F8030400F40304009F
:102C3000F0030400EC030400E8030400E4030400D0
:102C4000E0030400DC030400D8030400D403040000
:102C5000D0030400CC030400C8030300C503030031
:102C600024F404D9201BC40C5C0E9804C4095F0230
:102C700065077101F405F900FB04B30048048700FF
:102C8000C10369005803550003034500BE023A0022
:102C90008402310053022A00290225000402200088
:102CA000E4011C00C8011900AF01170098011400CD
:102CB00084011300710110006101100051010E0028
:102CC00043010D0036010B002B010B0020010B000E
:102CD000150109000C01090003010800FB000800B0
:102CE000F3000800EB000700E4000600DE00060029
:102CF000D8000600D2000600CC000500C700050081
:102D0000C2000500BD000400B9000400B5000400C5
:102D1000B1000400AD000400A9000400A5000300F8
:102D2000A20003009F0004009B0003009800030022
:102D30009500020093000300900003008D00020044
:102D40008B0003008800020086000200840003005C
:102D5000810002007F0002007D0002007B00020073
:102D60007900020077000100760002007400020082
:102D700072000100710002006F0002006D0001008E
:102D80006C0002006A000100690002006700010097
:102D9000660001006500010064000200620001009D
:102DA00061000100600001005F0002005D000100A1
:102DB0005C0001005B0001005A00010059000100A5
:102DC00058000100570001005600010055000100A5
:102DD00054000100530000005300010052000100A4
:102DE00051000100500001004F0001004E000000A2
:102DF0004E0001004D0001004C0001004B0000009E
:102E00004B0001004A000100490001004800000099
:102E10004800010047000100460000004600010094
:102E2000450000004500010044000100430000008F
:102E30004300010042000000420001004100000088
:102E400041000100400001003F0000003F00010080
:102E50003E0000003E0001003D0000003D0001007A
:102E60003C0000003C0000003C0001003B00000072
:102E70003B0001003A0000003A0001003900000068
:102E8000390001003800000038000000380001005F
:102E90003700000037000100360000003600000057
:102EA000360001003500000035000000350001004B
:102EB0003400000034000000340001003300000042
:102EC0003300000033000100320000003200000037
:102ED000320001003100000031000000310001002B
:102EE0003000000030000000300001002F00000022
:102EF0002F0000002F0000002F0001002E00000016
:102F00002E0000002E0001002D0000002D0000000A
:102F10002D0000002D0001002C0000002C000000FE
:102F20002C0000002C0001002B0000002B000000F2
:102F30002B0000002B0001002A0000002A000000E6
:102F40002A0000002A0001002900000029000000DA
:102F500029000000290000002900010028000000CD
:102F600028000000280000002800000028000100C0
:102F700027000000270000002700000027000000B5
:102F800027000100260000002600000026000000A7
:102F9000260000002600010025000000250000009A
:102FA000250000002500000025000000250001008C
:102FB0002400000024000000240000002400000081
:102FC0002400010023000000230000002300000073
:102FD0002300000023000000230000002300010064
:102FE0002200000022000000220000002200000059
:102FF000220000002200010021000000210000004A
:10300000210000002100000021000000210000003C
:10301000210001002000000020000000200000002E
:103020002000000020000000200000002000000020
:10303000200001001F0000001F0000001F00000012
:103040001F0000001F0000001F0000001F00010003
:103050001E0000001E0000001E0000001E000000F8
:10306000043700001E290000511B0000581000000A
:1030700010090000CC0400007802000041010000AB
:1030800000060900FE0701920321207FFF07FF07CA
:10309000FF00000006000001070706020080808094
:1030A00080800080030202060105A0A00507070634
:1030B00000005050F850F850500507070600002057
:1030C00078A07028F020050707060000C0C810206F
:1030D0004098180507070600006090A040A8906877
:1030E000020303060104C040800307070601002015
:1030F0004080808040200307070601008040202098
:1031000020408005050506000120A870A8200505BF
:10311000050600012020F820200203030602FFC05C
:103120004080050101060003F8020202060200C009
:10313000C0050505060001081020408005070706A8
:10314000000070888888888870030707060100409F
:10315000C040404040E00507070600007088087046
:103160008080F8050707060000F81020100808F016
:1031700005070706000010305090F81010050707EB
:10318000060000F880F008088870050707060000B0
:10319000708080F0888870050707060000F8081026
:1031A0002020202005070706000070888870888886
:1031B0007005070706000070888878080870020507
:1031C00005060200C0C000C0C00206060602FFC01D
:1031D000C000C04080040707060000102040804067
:1031E0002010050303060002F800F8040707060193
:1031F00000804020102040800507070600007088EE
:10320000081020002005070706000070880868A83D
:10321000A870050707060000708888F88888880568
:103220000707060000F08888F08888F00507070681
:10323000000070888080808870050707060000F015
:103240008888888888F0050707060000F88080F0E5
:103250008080F8050707060000F88080F0808080F5
:10326000050707060000708880B888887005070782
:10327000060000888888F888888801070706020009
:10328000808080808080800507070600003810104D
:10329000101090600507070600008890A0C0A0905D
:1032A00088050707060000808080808080F8050779
:1032B0000706000088D8A8888888880507070600C0
:1032C000008888C8A89888880507070600007088C5
:1032D0008888888870050707060000F08888F080D5
:1032E000808005070706000070888888A890680518
:1032F0000707060000F08888F0A0908805070706F9
:103300000000788080700808F0050707060000F8C4
:1033100020202020202005070706000088888888B4
:1033200088887005070706000088888888885020EC
:103330000507070600008888888888A850050707C1
:10334000060000888850205088880507070600007E
:1033500088888850202020050707060000F80810FC
:10336000204080F8030707060100E080808080800D
:10337000E005050506000180402010080307070648
:103380000100E02020202020E005030306000420A7
:103390005088050101060000F802020206020580BD
:1033A00040050505060000700878887805070706BF
:1033B00000008080B0C88888F00505050600007010
:1033C00080808870050707060000080868988888CC
:1033D000780505050600007088F880700507070667
:1033E00000003048E0404040400506060600FF70FF
:1033F00088887808700507070600008080B0C888B4
:103400008888010707060200800080808080800392
:1034100008080601FF200020202020A04004070704
:10342000060000808090A0C0A0900307070601005E
:10343000C04040404040E0050505060000D0A8A877
:10344000A8A8050505060000B0C8888888050505F8
:1034500006000070888888700506060600FFF08860
:1034600088F080800506060600FF788888780808BE
:10347000050505060000B0C880808005050506002A
:103480000070807008F00407070600004040E0402C
:1034900040403005050506000088888898680505C5
:1034A000050600008888885020050505060000886C
:1034B00088A8A850050505060000885020508805FA
:1034C00006060600FF88888878087005050506004E
:1034D00000F8102040F80307070601002040408054
:1034E00040402001070706020080808080808080A5
:1034F000030707060100804040204040800502028B
:1035000006000268900000000600004D6F766520FE
:1035100058004D6F76652059004D6F7665205A0032
:103520004578747275646572004D6F766520302E33
:10353000316D6D004D6F766520316D6D004D6F768C
:10354000652031306D6D004D6F766520617869734F
:10355000004578747275646572004D6F7665205A07
:10356000004D6F76652059004D6F766520580045F7
:1035700078747275646572004D6F7665205A004DDF
:103580006F76652059004D6F766520580050726542
:103590007061726500496E697469616C697A652051
:1035A000454550524F4D00436F6E74726F6C005220
:1035B0006573746F7265206661696C73616665001E
:1035C0004C6F61642073657474696E677300496E33
:1035D000697469616C697A6520454550524F4D00A8
:1035E00053746F72652073657474696E67730046F7
:1035F000696C616D656E74004D6F74696F6E005417
:10360000656D7065726174757265004D61696E00FB
:103610005072696E742061626F72746564005072DA
:10362000696E742066726F6D2053440053746F701E
:10363000207072696E7400526573756D65207072CA
:10364000696E74004E6F20534420636172640050B1
:1036500061757365207072696E7400436F6E747269
:103660006F6C00507265706172650054756E650014
:10367000496E666F2073637265656E0042616279A0
:1036800073746570205A004368616E6765206669CF
:103690006C616D656E74004368616E676520666974
:1036A0006C616D656E74004D3630302042300042E2
:1036B00061627973746570205A00466C6F770046BA
:1036C0006C6F770046616E207370656564004661BB
:1036D0006E20737065656400426564004265640035
:1036E0004E6F7A7A6C65004E6F7A7A6C650046612F
:1036F00064652048656967687400466164652048B0
:10370000656967687400537065656400537065652A
:1037100064004D61696E004D3234004D3233202516
:103720007300556E6B6E6F776E20636F6D6D616E9B
:10373000643A202200486F74656E6420746F6F20B5
:10374000636F6C640A0050726F62696E6720666115
:10375000696C65640A0050726F62696E6720666109
:10376000696C656400205A3A200020593A200042D2
:10377000656420583A2000486F6D652025732573D5
:103780002573206669727374002066697273740A07
:10379000005A0059005800486F6D6520005265734B
:1037A000656E643A20006F6B0020746F6F206C6F41
:1037B0006E6720657874727573696F6E20707265BC
:1037C00076656E7465640A0020636F6C64206578AA
:1037D00074727573696F6E2070726576656E74654C
:1037E000640A0057726974696E6720746F20666995
:1037F0006C653A20006F70656E206661696C656467
:103800002C2046696C653A20006F70656E206661F9
:10381000696C65642C2046696C653A200046696CC9
:10382000652073656C65637465640A002053697A6A
:10383000653A200046696C65206F70656E65643A74
:1038400020002066696C653A2000646F696E67002D
:103850006672657368004E6F772000454E442053B2
:103860005542524F5554494E450A002220706F73FD
:10387000002220706172656E743A220053554252E4
:103880004F5554494E452043414C4C20746172675A
:1038900065743A22004B494C4C45442E200074720A
:1038A00079696E6720746F2063616C6C2073756238
:1038B0002D67636F64652066696C65732077697432
:1038C0006820746F6F206D616E79206C6576656C11
:1038D000732E204D4158206C6576656C2069733AD3
:1038E000004572726F723A006F6B0020573A0045C4
:1038F00020436F6F6C696E672E2E2E004520486541
:103900006174696E672E2E2E0000F200F4001124FF
:103910001FBECFEFD1E2DEBFCDBF00E00CBF13E092
:10392000A0E0B2E0E2EFFFE602E00BBF02C00790CA
:103930000D92A63AB107D9F726E1A6EAB3E001C095
:103940001D92AC3DB207E1F71CE1C6E8DCE100E006
:1039500006C021970109802FFE010F945D37C538FD
:10396000D10780E00807A9F70F94A9200D94E83744
:103970000C9400002F923F924F925F926F927F9231
:103980008F929F92AF92BF92CF92DF92EF92FF926F
:103990000F931F93CF93DF93CDB7DEB7CB59D109E8
:1039A0000FB6F894DEBF0FBECDBF11E01093590CD7
:1039B0008091EB128D3411F40C943026843511F47F
:1039C0000C949736873411F00C94E3368091E91209
:1039D0009091EA128C31910509F430C69CF4843040
:1039E00091053CF482309105ACF597FF2CC00C9406
:1039F0002C268430910509F4B2C54B9709F4EEC525
:103A00000C942C268A32910509F4EAC74CF48D31C6
:103A1000910509F40DC74E9709F40EC70C942C2696
:103A20008B35910511F40C94B2258C35910511F468
:103A30000C94B6258A35910511F00C942C26109221
:103A4000AA030C94E5368091040281110C94EA36A5
:103A50000C94E53620910402222311F40C94E536EF
:103A600011E0029709F010E00E94914282E50E9465
:103A7000DD41882309F436C10E945F416B017C015E
:103A800040909712509098126090991270909A12EC
:103A900020919B1230919C1240919D1250919E1248
:103AA00029A73AA74BA75CA78091750C9091760C3B
:103AB000A091770CB091780C8DA79EA7AFA7B8AB5B
:103AC0002091790C30917A0C40917B0C50917C0CB8
:103AD00029AB3AAB4BAB5CAB20E030E0A901C701AE
:103AE000B6010F943530882309F41FC5A301920154
:103AF0006DA57EA58FA598A90F94353081110DC0B5
:103B000029A53AA54BA55CA569A97AA98BA99CA969
:103B10000F943530882309F408C520E030E0A9016E
:103B2000C701B6010F943530881F8827881F1813E6
:103B30000BC080E090E0A0E8BFE325968CAF9DAF7E
:103B4000AEAFBFAF25970AC020E030E040E85FEBA2
:103B500025962CAF3DAF4EAF5FAF2597A3019201E5
:103B60006DA57EA58FA598A90F946D3469AF7AAF26
:103B70008BAF9CAF29A53AA54BA55CA569A97AA9ED
:103B80008BA99CA90F946D3421966CAF7DAF8EAF3D
:103B90009FAF219729AD3AAD4BAD5CADCA01B901DC
:103BA0000F949A304B015C0121962CAD3DAD4EAD8A
:103BB0005FAD2197CA01B9010F949A309B01AC0106
:103BC000C501B4010F946E340F94D9366DAB7EAB42
:103BD0008FAB98AF20E030E040E05FE30F949A3085
:103BE0004B015C01A7019601C701B6010F949A3001
:103BF0006B017C01A5019401C501B4010F949A30B9
:103C00009B01AC01C701B6010F946D340F94D936F6
:103C10009B01AC0125966CAD7DAD8EAD9FAD25971A
:103C20000F949A304B015C012DA53EA54FA558A9D4
:103C3000C301B2010F946E3420E030E040E05FE356
:103C40000F949A306B017C0121966CAD7DAD8EADE9
:103C50009FAD219790582DA93EA94FA958AD0F941B
:103C60004A359B01AC01C501B4010F949A309B0108
:103C7000AC01C701B6010F946E34A30192010F94F9
:103C80006D346B017C0129A93AA94BA95CA969A5EE
:103C90007AA58BA59CA50F946E3420E030E040E01F
:103CA0005FE30F949A302B013C012DA93EA94FA947
:103CB00058AD69AD7AAD8BAD9CAD0F944A359B0183
:103CC000AC01C501B4010F949A309B01AC01C30152
:103CD000B2010F946E3429A53AA54BA55CA50F94AB
:103CE0006D3414C089E40E94DD41882329F00E94CC
:103CF0005F416B017C0103C0C12CD12C76018AE4A9
:103D00000E94DD418823D9F00E945F4169AB7AAB04
:103D10008BAB9CAB20E030E0A901C701B6010F944A
:103D2000353081111AC020E030E0A90169A97AA9D3
:103D30008BA99CA90F94353081110FC0F6C320E0E8
:103D400030E0A901C701B6010F943530882309F48A
:103D5000ECC319AA1AAA1BAA1CAAD701C601B058FB
:103D600089A79AA7ABA7BCA729A93AA94BA95CA97F
:103D700050582DA73EA74FA758AB9C01AD01BC01E1
:103D8000CD010F949A304B015C012DA53EA54FA5A6
:103D900058A9CA01B9010F949A309B01AC01C50121
:103DA000B4010F946E340F94D93665966CAF7DAF25
:103DB0008EAF9FAF65978091971290919812A091C6
:103DC0009912B0919A128DAB9EABAFABB8AFA70171
:103DD0009601BC01CD010F946E3425966CAF7DAF7A
:103DE0008EAF9FAF259720919B1230919C124091EE
:103DF0009D1250919E1229AF3AAF4BAF5CAF29A9EB
:103E00003AA94BA95CA969AD7AAD8BAD9CAD0F9475
:103E10006E3429966CAF7DAF8EAF9FAF299780919E
:103E2000750C9091760CA091770CB091780C21963E
:103E30008CAF9DAFAEAFBFAF219725962CAD3DADFA
:103E40004EAD5FAD2597BC01CD010F946D346B0174
:103E50007C012091790C30917A0C40917B0C50912F
:103E60007C0C2D962CAF3DAF4EAF5FAF2D972996B2
:103E70002CAD3DAD4EAD5FAD29972D966CAD7DADB2
:103E80008EAD9FAD2D970F946D344B015C018091E9
:103E90009F129091A012A091A112B091A2126196CE
:103EA0008CAF9DAFAEAFBFAF61979C01AD0160918C
:103EB0007D0C70917E0C80917F0C9091800C0F9402
:103EC0006D342B013C012091810C3091820C40918A
:103ED000830C5091840C69962CAF3DAF4EAF5FAF11
:103EE00069978091A3129091A412A091A512B0910C
:103EF000A612A1968CAF9DAFAEAFBFAFA197A701A1
:103F0000960169A57AA58BA59CA50F949A306D960C
:103F10006CAF7DAF8EAF9FAF6D97A50194016DA57E
:103F20007EA58FA598A90F949A309B01AC016D9640
:103F30006CAD7DAD8EAD9FAD6D970F946E346D966B
:103F40006CAF7DAF8EAF9FAF6D97A501940169A552
:103F50007AA58BA59CA50F949A304B015C01A70113
:103F600096016DA57EA58FA598A90F949A309B0107
:103F7000AC01C501B4010F946D346D962CAD3DAD0F
:103F80004EAD5FAD6D970F94E1346B017C0120E085
:103F900030E0A9010F94353087FF0AC02BED3FE0D8
:103FA00049EC50E4C701B6010F946E346B017C01FB
:103FB000112351F02BED3FE049EC50E4C701B6016D
:103FC0000F946D346B017C0120E030E0A901C70142
:103FD000B6010F943530811124C021962CAD3DAD32
:103FE0004EAD5FAD21976DA97EA98FA998AD0F94B5
:103FF0003530811116C02D962CAD3DAD4EAD5FAD67
:104000002D9769AD7AAD8BAD9CAD0F943530811194
:1040100008C0EBEDCE2EEFE0DE2EE9ECEE2EE0E474
:10402000FE2EA701960165966CAD7DAD8EAD9FAD60
:1040300065970F949A304B015C0120E030E0A901B4
:10404000C301B2010F9435308823C9F0A501940152
:10405000C501B4010F949A304B015C01A301920198
:10406000C301B2010F949A309B01AC01C501B401A8
:104070000F946E340F94D9364B015C010DC020E0D3
:1040800030E0A901C501B4010F94943687FF04C044
:10409000B7FAB094B7F8B0942FE632E143E85AE3A8
:1040A000C501B4010F94353087FF02C00C94E5368A
:1040B000C501B4010F94E3350F94B7351B01672B8D
:1040C00019F422242394312CB10180E090E00F9464
:1040D00039304B015C019B01AC01C701B6010F9463
:1040E0004A356DAB7EAB8FAB98AFA5019401C30190
:1040F000B2010F944A3565966CAF7DAF8EAF9FAF1E
:104100006597A1962CAD3DAD4EAD5FADA19769967B
:104110006CAD7DAD8EAD9FAD69970F946D34A501EB
:1041200094010F944A3569966CAF7DAF8EAF9FAF07
:1041300069972DA93EA94FA958ADCA01B9010F949D
:104140009A3020E030E040E05FE30F949A309B012A
:10415000AC0160E070E080E89FE30F946D342D9631
:104160006CAF7DAF8EAF9FAF2D9761962CAD3DADFF
:104170004EAD5FAD619729873A874B875C87A196E3
:104180008CAD9DADAEADBFADA1978D879E87AF873E
:10419000B88B6091400270914102072E000C880B91
:1041A000990B0F943B302091490230914A02409183
:1041B0004B0250914C020F949A302AE037ED43E2C3
:1041C0005CE30F949A306DA37EA38FA398A70E94FF
:1041D0001BB09B01AC0128533F4F4F4F5F4F61967F
:1041E0002CAF3DAF4EAF5FAF619749A45AA46BA40B
:1041F0007CA441E050E05EAF4DAF59E159AF2DAD29
:104200003EAD2215330509F439C10E9437850E945D
:104210001BB0DC01CB0161962CAD3DAD4EAD5FAD69
:104220006197821B930BA40BB50BB7FD11C00E94C5
:104230001BB09B01AC0128533F4F4F4F5F4F61961E
:104240002CAF3DAF4EAF5FAF619780E00E94AEC430
:1042500039AD315039AF332309F441C02D962CAD1F
:104260003DAD4EAD5FAD2D976DA57EA58FA598A9EF
:104270000F949A306B017C012DA93EA94FA958AD2E
:10428000B201C3010F949A30A70196010F946E34C6
:104290007B018C012D962CAD3DAD4EAD5FAD2D97C4
:1042A000B201C3010F949A304B015C012DA93EA9C4
:1042B0004FA958AD6DA57EA58FA598A90F949A30EA
:1042C0009B01AC01C501B4010F946D342B013C017D
:1042D000C701D8018DA79EA7AFA7B8AB51C04DAD00
:1042E0005EADBA0180E090E00F9439302DA93EA96F
:1042F0004FA958AD0F949A304B015C010F9447358C
:104300006B017C01C501B4010F94CF364B015C01F8
:10431000A701960169A57AA58BA59CA50F949A3053
:104320002B013C01A501940169A97AA98BA99CA93B
:104330000F949A309B01AC01C301B2010F946E340B
:104340002B013C01A501940169A57AA58BA59CA52B
:104350000F949A304B015C01A701960169A97AA9D3
:104360008BA99CA90F949A309B01AC01C501B401A3
:104370000F946D346DA77EA78FA798AB59E159AF05
:104380009201A30125966CAD7DAD8EAD9FAD2597B5
:104390000F946E3469837A838B839C832DA53EA50D
:1043A0004FA558A929966CAD7DAD8EAD9FAD2997CF
:1043B0000F946E346D837E838F83988765962CADC2
:1043C0003DAD4EAD5FAD659769857A858B859C85E2
:1043D0000F946E3469877A878B879C8769962CAD9A
:1043E0003DAD4EAD5FAD69976D857E858F859889B2
:1043F0000F946E346D877E878F87988BCE010196E0
:104400000F94840EE0907D121D8E1E8E1F8E18A2BA
:1044100089819A81AB81BC81898B9A8BAB8BBC8B58
:104420008D819E81AF81B8858D8B9E8BAF8BB88F30
:1044300089859A85AB85BC85898F9A8FAB8FBC8F18
:10444000AE01475E5F4FBE016B5E7F4FCE0141966E
:104450000E943A50CE014D966C018E010B5D1F4FAC
:104460009E01235F3F4FAE01475E5F4FBE016B5E13
:104470007F4F0C970E945499811151C0E0907D129A
:1044800019A21AA21BA21CA28091750C9091760C05
:10449000A091770CB091780C898B9A8BAB8BBC8BED
:1044A0008091790C90917A0CA0917B0CB0917C0C4E
:1044B0008D8B9E8BAF8BB88F80917D0C90917E0CF5
:1044C000A0917F0CB091800C898F9A8FAB8FBC8F9D
:1044D000AE01475E5F4FBE016B5E7F4FCE014196DE
:1044E0000E943A50DE0191966D018E010B5D1F4FC7
:1044F00021E83CE0AE01475E5F4FBE016B5E7F4F3F
:10450000CE0141960E94549980E1E5E7FCE0A7E9DD
:10451000B2E101900D928A95E1F70C94E536EDAD8C
:10452000FEAD3196FEAFEDAF6ACEE1EEF8E38491D9
:104530008F010F5F1F4F882321F00E94AB43F801CA
:10454000F6CFEBE6F2E084918F010F5F1F4F8823D7
:1045500011F40C94E5360E94AB43F801F4CF80E5EA
:104560000E94DD41882329F00E941F416B017C01DC
:1045700003C0C12CD12C760183E50E94DD41882344
:1045800061F00E945F4120E030E04AE754E40F947C
:104590009A300F94B7356B017C010E940DA7809172
:1045A0003B07811105C060E081E892E00E9403FBB7
:1045B0000E941BB0C60ED71EE81EF91E0E941BB03B
:1045C000DC01CB018C199D09AE09BF09B7FD02C002
:1045D0000C94E53680E00E94AEC4F0CF0F945806EC
:1045E00081110C94E53680E090E0A0E2B1EC898383
:1045F0009A83AB83BC8380E090E8A9E8B3E48D8321
:104600009E83AF83B88780E090E0A0EAB1E4898719
:104610009A87AB87BC8780E50E94DD41882319F02B
:104620000E942F4101C060E0698BBE016F5F7F4F28
:10463000CE0141960E94AF500C94E53680918612CF
:104640008770873071F48FE40E94DD41882319F070
:104650000E94504103C08FE40E94964181110C9446
:10466000E5360E940DA780E00E948D3F0E94E23B4C
:1046700011E01093380588E50E949641A82E89E53F
:104680000E949641082F8AE50E949641B82EA110FB
:1046900004C0011104C0182705C0011102C010E0B8
:1046A00001C0182F0E94174382E50E94DD41882334
:1046B00061F00E945F416B017C0120E030E0A901C4
:1046C0000F943530882371F106C0C12CD12C60EED7
:1046D000E62E60E4F62E111104C0A11002C00023E2
:1046E00091F1C0927D0CD0927E0CE0927F0CF09202
:1046F000800C20919F123091A0124091A1125091F4
:10470000A212C701B6010F94943618165CF41982F0
:104710001A821B821C82BE016F5F7F4F8DE79CE077
:104720000E94FF3C111105C0A11003C0011106C079
:104730000AC080E00E944CC21123C1F381E00E94B4
:104740004CC2111103C0BB2009F463C080918612D2
:1047500083708330F1F060E089E992E00E9403FB0E
:10476000EAE4FBE184918F010F5F1F4F882321F062
:104770000E94AB43F801F6CFEAE8F2E084918F01A2
:104780000F5F1F4F882309F444C00E94AB43F80118
:10479000F5CF0E94703E80E090E0A6EEB2E48093F8
:1047A000750C9093760CA093770CB093780C809155
:1047B0009F129091A012A091A112B091A212809389
:1047C0007D0C90937E0CA0937F0CB093800C80E0C6
:1047D00090E0A2E2B3E48093790C90937A0CA093DA
:1047E0007B0CB0937C0C64EF71E080E090E00E9461
:1047F00011FA19821A821B821C82AE014F5F5F4F31
:1048000069E77CE085E79CE00E94DE3C82E00E9454
:104810004CC20E94703E80913705809338050E94FB
:10482000C93B83E080934D020E945CD70C94E5362F
:104830000E9482480C94E536C0909712D09098124E
:10484000E0909912F0909A1288E50E94DD41811162
:1048500008C020E030E0A901C701B6010F946E3412
:1048600002C00E945F41698B7A8B8B8B9C8BC090BE
:104870009B12D0909C12E0909D12F0909E1289E5C0
:104880000E94DD41811109C020E030E040EA51E49E
:10489000C701B6010F946D3402C00E945F419B01B5
:1048A000AC0169837A838B839C8369897A898B893C
:1048B0009C890E94A5C3882311F40C94E53680E0FE
:1048C0000E948D3F0E94E23B85E40E94DD418823E7
:1048D00021F00E945041182F04C085E40E949641A7
:1048E00011E086E50E94DD41882321F00E942F41DE
:1048F000262F01C021E0412FBE016F5F7F4FCE0107
:1049000041960F9444076B017C019B01AC010F940D
:104910001A3781115FC089889A88AB88BC8820E0EB
:1049200030E0A901C501B4010F94353087FD05C001
:1049300027E137EB41E558E304C027E137EB41E5D8
:1049400058EBC501B4010F946E34AB01BC0181EB8F
:1049500092E00E948FF389809A80AB80BC8020E037
:1049600030E0A901C501B4010F94353087FD05C0C1
:1049700027E137EB41E558E304C027E137EB41E598
:1049800058EBC501B4010F946E34AB01BC018CEA45
:1049900092E00E948FF320E030E0A901C701B60148
:1049A0000F94353087FD05C027E137EB41E558E32B
:1049B00004C027E137EB41E558EBC701B6010F947E
:1049C0006E34AB01BC0187EA92E00E948FF38AE06B
:1049D0000E94AB430E94C93B0E945CD70C94E53611
:1049E00080910402882311F40C94E53689E40E9436
:1049F000DD41F82E882321F00E942F41E62E01C0D0
:104A0000E12C8AE40E94DD41182F882331F00E94B6
:104A10002F41062FF11004C00BC000E0FF20B9F0B9
:104A200032E03E1510F00C94A139E9EBF2E003C03E
:104A30000330D8F70CC084918F010F5F1F4F88237C
:104A400011F40C94E5360E94AB43F801F4CF0E94B8
:104A50001743FF20F1F02091CC0C3091CD0C4E2D5E
:104A60004203B001439F700D112480914E04909138
:104A70004F04680F791F072E000C880B990B0F94B9
:104A80003B306093750C7093760C8093770C909309
:104A9000780C1123E9F02091CE0C3091CF0C020359
:104AA000B001039F700D11242091500430915104E6
:104AB000620F731F072E000C880B990B0F943B306D
:104AC0006093790C70937A0C80937B0C90937C0CA0
:104AD00080E50E94DD418823E9F00E94504188234F
:104AE000E9F01123D9F020E030E040EA51E4609190
:104AF000790C70917A0C80917B0C90917C0C0F94C6
:104B00006E346093790C70937A0C80937B0C909345
:104B10007C0C04C080E50E949641E1CF86E40E94AF
:104B2000DD418823D9F00E945F416B017C0120E0C8
:104B300030E0A9010F949436181684F420E030E098
:104B400040E752E4C701B6010F944A356093490229
:104B500070934A0280934B0290934C020F94D90EAB
:104B60000C94E5361093AA030C94E53642E7242E04
:104B700042E0342E59E6C52E5CE0D52EE12CF12C16
:104B800000E010E0D1018D911D010E94DD418823DC
:104B900009F44EC00E945F412B013C01133059F0D3
:104BA000F701E957FD4E20813181428153810F94F5
:104BB0006D342B013C01F701E956FD4E2081318116
:104BC00042815381C301B2010F946D344B015C01EA
:104BD0002DEB37E346E855EB0F94943687FD0AC07A
:104BE0002DEB37E346E855E3C501B4010F943530AA
:104BF0001816F4F4133051F44092A3125092A412F8
:104C00006092A5127092A61201E012C0A501940153
:104C1000F60160817181828193810F946E34D60197
:104C20006D937D938D939C931397812F0E94BD3D2F
:104C30001F5FB4E0CB0ED11CE4E0EE0EF11C14308B
:104C400009F0A0CF002321F083EA92E10F94F90646
:104C50000E945CD70C94E5360F94710A0C94E536EB
:104C60008091E9129091EA128937910509F459C3AC
:104C70000CF000C18D34910509F404C30CF073C02D
:104C80008A31910509F451C2C4F58431910509F4C2
:104C900023C294F48131910509F40FC244F40297C0
:104CA00010F00C9494360E94E9410C94E53642973A
:104CB00009F41BC30C9494368731910509F414C28E
:104CC00074F48531910509F40BC2469711F00C94E8
:104CD00094361092C0091092C1090C94E5368831BF
:104CE000910509F417C2499711F00C94943610926B
:104CF000C0090E94C4810C94E5368F31910509F4F6
:104D0000B5C29CF48C31910509F495C20CF41BC218
:104D10008D31910511F40C94E5364E9711F00C94F9
:104D200094360E9440BF0C94E5368033910509F417
:104D3000A1C264F48032910509F487C28A9711F008
:104D40000C9494360E94E3BD0C94E5368B349105A7
:104D500009F494C28C34910511F00C9494360E949D
:104D6000C4810C94E5368C36910509F493C2E4F5C0
:104D70008535910509F4BDC2C4F48235910509F465
:104D8000ABC24CF48135910511F00C9494360E941D
:104D900076D90C94E5368335910509F4A1C28435A2
:104DA000910509F4A2C20C9494368936910509F450
:104DB00079C26CF48C35910509F49FC2883691054F
:104DC00011F00C9494360F94431E0C94E5368A36F9
:104DD000910509F47DC28B36910511F00C9494363F
:104DE0000F94CD1D0C94E5368237910509F489C2E4
:104DF000FCF48F36910509F449C26CF48D369105A7
:104E000009F45AC28E36910511F00C9494360E9422
:104E1000A1DA0C94E5368037910509F43FC2813759
:104E2000910511F00C9494360E9400DA0C94E5364A
:104E30008637910509F46DC26CF48337910509F446
:104E400064C28537910511F00C9494360E9400D706
:104E50000C94E5368737910509F45FC288379105D0
:104E600011F00C94943681E08093380580933705D7
:104E70000C94E5368336F1E09F0711F40C94A330CF
:104E80000CF07EC08D3C910509F4A5C2D4F58B3998
:104E9000910509F40DC2CCF48C38910509F410C2C7
:104EA0003CF48A37910511F40C9428330C94943611
:104EB0008139910509F43BC28639910511F00C94B2
:104EC00094360E9430D60C94E536893C910509F45D
:104ED0007AC254F48E3B910509F4F6C1883C9105E1
:104EE00009F429C20C9494368B3C910509F46FC2E5
:104EF0008C3C910511F00C9494360E9472D50C9460
:104F0000E536823231E0930709F41CC3E4F48C3DAA
:104F1000910509F468C26CF48E3C910509F45FC2F6
:104F2000833D910511F00C9494360E9447EA0C944D
:104F3000E5368D3D910509F465C2823E910509F47F
:104F4000D2C20C9494368E3251E0950709F4DBC33B
:104F50005CF48C32B1E09B0709F402C38D329140BE
:104F600009F428C30C9494368F32F1E09F0709F4BA
:104F700021C48033914011F40C9426300C94943663
:104F8000873F31E0930711F40C946E320CF04BC064
:104F9000843A51E0950711F40C94C830FCF481393F
:104FA000B1E09B0711F40C94BC304CF48039914073
:104FB00011F00C9494360E940DA70C94E5368239BA
:104FC00021E0920711F40C94C2308A39914011F01B
:104FD0000C9494360E9409EA0C94E536843F41E033
:104FE000940711F40C9468327CF4853AA1E09A0796
:104FF00011F40C94D5318C3A914011F00C94943604
:105000000E9403E90C94E536853FE1E09E0711F428
:105010000C946B32863F914011F00C9494360E94B0
:105020004A580C94E5368B3823E0920711F40C941F
:10503000E5361CF58B3542E0940711F40C949C3254
:105040007CF4883FA1E09A0711F40C9479328835FA
:10505000924011F00C9494360E9435E40C94E5369D
:105060008335E3E09E0711F40C9425338A3893408E
:1050700011F40C9443350C949436823923E0920752
:1050800011F40C942E366CF48F3843E0940711F42D
:105090000C94A4358039934011F40C94B9350C94D8
:1050A0009436803AA3E09A0709F4D3C0873E934030
:1050B00011F40C947F360C94943660E088ED92E005
:1050C0000E9403FB5F988A98809108018170809309
:1050D000060112980C94E5360E94B5430C94E5360F
:1050E0000E94DFA80C94E536E091E712F091E812F7
:1050F0008081882329F0803209F410823196F8CF1C
:1051000040E061E08091E7129091E8120F947B14E7
:105110000C94E5368091C109882319F081E08093D1
:10512000C0090E948B810C94E5368091C1098823C7
:1051300011F40C94E53683E50E94DD4181110C9455
:10514000EF360C94E53683E40E949641882399F16A
:10515000EEE0F3E084918F010F5F1F4F882321F071
:105160000E94AB43F801F6CF80918B0B882391F01E
:10517000BE016F5F7F4F88E89BE00E94D76D8E0174
:105180000F5F1F4FF80181918F01882379F00E94F2
:10519000AB43F8CFE1EEF2E084918F010F5F1F4F38
:1051A000882321F00E94AB43F801F6CF8AE00E94E9
:1051B000AB430C94E5368091C109882371F180914D
:1051C000C009882351F1EBEEF2E084918F010F5F6B
:1051D0001F4F882321F00E94AB43F801F6CF609166
:1051E000390C70913A0C80913B0C90913C0C4AE048
:1051F0000E94CE468FE20E94AB436091350C7091C5
:10520000360C8091370C9091380C4AE00E94CE46C3
:105210008AE00E94AB430C94E536EDEFF2E0849116
:105220008F010F5F1F4F882311F40C94E5360E9405
:10523000AB43F801F4CF40E060E08091E712909139
:10524000E8120F947B140C94E5360E9430BE0C9447
:10525000E5368091E7129091E81221E02093BF0992
:1052600040E060E00F947B140C94E5360E9471BE20
:105270000C94E5360E946AB80C94E5360E948B8146
:105280000C94E5360E94D9810C94E5360E942ADA06
:105290000C94E536109242020C94E5368DE193E0D1
:1052A0000E943FC40F94261E1092590C0C94C239D0
:1052B0000F94F81D0C94E5360F94921B0C94E53670
:1052C0000E94D4DC0C94E5360E94B1DA0C94E536E9
:1052D0000F94DC1D0C94E5361092A9030C94E5366E
:1052E00081E08093A9030C94E5360E9418D90C94B0
:1052F000E5360E9400D90C94E5360E9462D80C94E1
:10530000E5360E9427D80C94E5360E940DD70C9400
:10531000E5360E94AED60C94E5360E9425520C94D8
:10532000E53610923805109237050C94E5360E9448
:1053300089D90C94E53688EC90E00E9434478111BD
:105340000C94E53684E40E9496418823C1F10E94C2
:105350005F4111E020E030E0A9010F943530811168
:1053600001C010E01093DC06112349F10E945F4157
:10537000E091BE0424E0E29FF0011124E852F94FCD
:10538000608371838283938320E030E0A901609180
:10539000D8067091D9068091DA069091DB060F94B9
:1053A000353081110CC080E090E0A0EEBFE3809327
:1053B000D8069093D906A093DA06B093DB060E9434
:1053C0002C4D0C94E5360E940BD60C94E5360E94C9
:1053D000E9D50C94E5360E944EEB0C94E5360E941C
:1053E00025EB0C94E53683E50E94DD41882311F41A
:1053F0000C94E5360E942F41709341026093400265
:105400000C94E5368DED90E00E94344781110C94A8
:10541000E53683E50E94DD418823E1F10091BE0479
:1054200010E00E942F41000F111FF801E25CFD4FB8
:10543000718360838091BE0490E08C01000F111F86
:10544000000F111FA801465C5D4F7A01880F991F5C
:10545000FC01E25CFD4F60817181072E000C880B1E
:10546000990B0F943B302AE037ED43E25CE30F9455
:105470009A30F801E25AFD4E2081318142815381F8
:105480000F949A30D7016D937D938D939C931397CE
:105490000C94E536EAE4FBE184918F010F5F1F4F26
:1054A000882321F00E94AB43F801F6CF85E40E94E7
:1054B000AB438091BE04805D0E94AB43E091BE048B
:1054C000F0E0EE0FFF1FE25CFD4F6081718186E22C
:1054D00093E00E94ACF385E20E94AB438AE00E9415
:1054E000AB430C94E53680E50E949641882311F485
:1054F0000C94E5360E942F416B017C0183E50E94EC
:10550000DD41882321F00E942F418B0102C00FEF63
:105510001FEFC8010196039710F00C94E536D7FEF3
:1055200002C00C94E5369C2DEEE2F3E08DE28E0F86
:105530002491921711F40C94003731968E13F8CF02
:105540000C9403378AE50E94DD4181110C942B37BE
:1055500083E50E94DD4181110C942B370C94E536D4
:1055600083E50E94DD41882319F00E942F4102C08B
:1055700064E071E07A8B698B80E50E94DD418823CD
:1055800039F00E942F416938B3E17B0730F402C043
:1055900068EE73E07A83698304C088E893E19A83B4
:1055A0008983BE016F5E7F4FCE0101960E941FAAC4
:1055B0000C94E53685E40E94DD41811110C080E540
:1055C0000E949641882391F00E945F416093930C62
:1055D0007093940C8093950C9093960C07C00E9446
:1055E0003F41882361F3E1EEF8E375C089E40E944E
:1055F0009641882381F00E945F412CEA35EC47E216
:105600005EE30F949A306093A30C7093A40C809384
:10561000A50C9093A60C84E40E949641882381F007
:105620000E945F412CEA35EC47E25EE30F944A3575
:1056300060939B0C70939C0C80939D0C90939E0C9C
:10564000EAE4FBE184918F010F5F1F4F882321F073
:105650000E94AB43F801F6CF60E070E089E793E089
:105660000E94ACF34091930C5091940C6091950C76
:105670007091960C85E793E00E948FF32CEA35EC4D
:1056800047E25EE36091A30C7091A40C8091A50C9D
:105690009091A60C0F944A35AB01BC0181E793E0D1
:1056A0000E948FF32CEA35EC47E25EE360919B0C9D
:1056B00070919C0C80919D0C90919E0C0F949A304F
:1056C000AB01BC018DE693E00E948FF38AE00E945B
:1056D000AB430C94E53684918F010F5F1F4F8823F5
:1056E00021F00E94AB43F801F6CFEBE5F3E08491A3
:1056F0008F010F5F1F4F882311F40C94E5360E9431
:10570000AB43F801F4CF83E50E949641182F88231C
:1057100071F00E945F410F94B23570934402609320
:10572000430221E0672B09F020E020937E1280E500
:105730000E949641882361F02091430230914402F7
:10574000232B11F00E94504180937E120C94E53679
:1057500011110C94E536EAE4FBE184918F010F5FAF
:105760001F4F882321F00E94AB43F801F6CF8091B0
:105770007E12811103C061E673E002C06EE573E042
:1057800082E993E00E94C5F3609143027091440264
:1057900081E893E00E94ACF3EDE7F3E084918F01A0
:1057A0000F5F1F4F882311F40C94E5360E94AB4322
:1057B000F801F4CF85E40E94DD41882321F00E94A6
:1057C0002F417B0102C0E12CF12C83E40E94DD41DA
:1057D000882331F00E942F41A8966FAFA89704C08C
:1057E00045E0A8964FAFA89785E50E94DD41882344
:1057F00019F00E94504103C085E50E949641E4964D
:105800008FAFE497F7FC07C0812C912CB6E1AB2E4B
:10581000B3E4BB2E06C0812C912CACE8AA2EA2E4E6
:10582000BA2E83E50E94DD41882321F00E945F416A
:105830004B015C01E114F10411F41092BE04E9A6DD
:105840000E941BB029966CAF7DAF8EAF9FAF29979A
:1058500059A557FD03C004E110E002C00CE310E0BD
:1058600061E06E0D623070F0EEE3F5E084918F013F
:105870000F5F1F4F882311F40C94E5360E94AB4351
:10588000F801F4CFE8E6F5E084917F019FEFE91A93
:10589000F90A882321F00E94AB43F701F5CF0E945B
:1058A000EE81A9A5A7FF09C08FE78093BD04FFE79C
:1058B0004F2E512C612C712C0DC0B9A5EB2FBB0FB5
:1058C000FF0BE454FB4F80E28083E0E24E2E512C2C
:1058D000612C712CC501B4010F94B235072E000C58
:1058E000880B990B0F943B306DAB79AF8DAF22963F
:1058F0009FAF22979801A8EEB3E00F945E34E8962C
:105900006CAF7DAF8EAF9FAFE8979B01AC0129963E
:105910008CAD9DADAEADBFAD2997280F391F4A1F85
:105920005B1FC058DF4F288339834A835B83C0588D
:10593000D04081E08093420299A597FF05C08FEF88
:1059400090E0A0E0B0E004C080E490E0A0E0B0E02F
:105950009C01AD012351310941095109CA57DF4F5B
:10596000288339834A835B83C658D0409C01AD01AC
:105970002451310941095109C657DF4F2883398322
:105980004A835B83CA58D0409C01AD015595479529
:1059900037952795C257DF4F288339834A835B8326
:1059A000CE58D0409C01AD01215031094109510927
:1059B000CE56DF4F288339834A835B83C259D04058
:1059C00049AA5AAA6BAA7CAA29968CAD9DADAEAD08
:1059D000BFAD2997AF968CAF9DAFAEAFBFAFAF97BE
:1059E000EC968CAF9DAFAEAFBFAFEC97AB961FAE52
:1059F000AB97C458DF4F188219821A821B82CC578A
:105A0000D0406E961FAE6E9790E462969FAF6297FD
:105A1000ACE16696AFAF6697B6E46A96BFAF6A9799
:105A2000A2961FAEA297A3961FAEA397A4961FAEF1
:105A3000A497A5961FAEA597812C912C5401619631
:105A40008CAE9DAEAEAEBFAE619775016401E396BC
:105A50001CAE1DAE1EAE1FAEE397E1E0AA96EFAFFF
:105A6000AA972B961FAE1EAE2B9710E0212C312C3F
:105A700000E0F9A58F2FFF0F990B9C0124543B4F99
:105A8000CC57DF4F39832883C458D040880F991FE3
:105A9000880F991FAC0147585D4EA7965FAF4EAF78
:105AA000A797A8968FADA897082E000C990BA996DA
:105AB0009FAF8EAFA99780914202882309F41CC141
:105AC0000E941BB06DA77EA78FA798AB8091B904E9
:105AD000882309F4F3C00E94388199A597FF09C073
